:100000000C942A000C9434000C9434000C943400AA
:100010000C9434000C9434000C9434000C94340090
:100020000C9434000C9434000C9434000C94340080
:100030000C9434000C9434000C9434000C94340070
:100040000C9434000C9434000C9434000C94340060
:100050000C94340011241FBECFE5D8E0DEBFCDBF25
:100060000E9457000C9486000C9400001BBA8FEF7E
:100070008ABB0895CF93DF9300D0CDB7DEB79A83C4
:10008000898320E030E009C0019602C080E090E062
:100090008F3F9105C8F32F5F3F4F89819A812817C1
:1000A0003907A0F30F900F90DF91CF9108950E9430
:1000B0003600C0E0D0E010C02BB381E090E00C2E01
:1000C00002C0880F991F0A94E2F7822B8BBB86E946
:1000D00090E00E943A002196C830D1056CF3C7E049
:1000E000D0E011C02BB381E090E00C2E02C0880F4D
:1000F000991F0A94E2F7809582238BBB86E990E0F2
:100100000E943A002197DD236CF7D3CFF894FFCFFC
:00000001FF
