:100000000C9433000C9450000C9450000C9450004D
:100010000C9450000C9450000C9450000C94500020
:100020000C9450000C9450000C9450000C94500010
:100030000C9450000C9450000C9450000C94500000
:100040000C9450000C9450000C9450000C945000F0
:100050000C94500062009300C400F5002601570183
:100060008801B901EA0111241FBECFE5D8E0DEBF47
:10007000CDBF10E0A0E6B0E0E4E3F6E002C00590FA
:100080000D92A037B107D9F720E0A0E7B0E001C09A
:100090001D92A437B207E1F70E94AE020C94180338
:1000A0000C940000CF93DF93DC01EB01E8814E2F2D
:1000B00050E04930510508F0A7C1FA01E65DFF4F55
:1000C0000C9412038981813091F018F08230E9F0AC
:1000D0009BC111968C9111978E7F11968C931197DD
:1000E00012968C9112978E7F12968C938DC11196D9
:1000F0008C9111978E7F11968C93119712968C91FB
:100100001297816012968C937FC111968C911197F2
:10011000816011968C93119712968C9112978E7F15
:1001200012968C9371C18981813091F018F08230E0
:10013000E9F06AC111968C9111978D7F11968C937D
:10014000119712968C9112978D7F12968C935CC1A9
:1001500011968C9111978D7F11968C931197129611
:100160008C911297826012968C934EC111968C914D
:100170001197826011968C93119712968C91129719
:100180008D7F12968C9340C18981813091F018F057
:100190008230E9F039C111968C9111978B7F1196BD
:1001A0008C93119712968C9112978B7F12968C9349
:1001B0002BC111968C9111978B7F11968C9311976F
:1001C00012968C911297846012968C931DC1119691
:1001D0008C911197846011968C93119712968C9143
:1001E00012978B7F12968C930FC18981813091F089
:1001F00018F08230E9F008C111968C911197877F31
:1002000011968C93119712968C911297877F129664
:100210008C93FAC011968C911197877F11968C93CD
:10022000119712968C911297886012968C93ECC05D
:1002300011968C911197886011968C931197129654
:100240008C911297877F12968C93DEC089818130C2
:1002500091F018F08230E9F0D7C011968C91119787
:100260008F7E11968C93119712968C9112978F7E98
:1002700012968C93C9C011968C9111978F7E11960E
:100280008C93119712968C911297806112968C9391
:10029000BBC011968C911197806111968C93119728
:1002A00012968C9112978F7E12968C93ADC0898195
:1002B000813091F018F08230E9F0A6C011968C914F
:1002C00011978F7D11968C93119712968C9112979E
:1002D0008F7D12968C9398C011968C9111978F7D7B
:1002E00011968C93119712968C91129780621296A8
:1002F0008C938AC011968C911197806211968C9381
:10030000119712968C9112978F7D12968C937CC0C8
:100310008981813091F018F08230E9F075C0119632
:100320008C9111978F7B11968C93119712968C91CB
:1003300012978F7B12968C9367C011968C911197B0
:100340008F7B11968C93119712968C9112978064E3
:1003500012968C9359C011968C91119780641196C6
:100360008C93119712968C9112978F7B12968C9387
:100370004BC08981813091F018F08230E9F044C09F
:1003800011968C9111978F7711968C9311971296E5
:100390008C9112978F7712968C9336C011968C9110
:1003A00011978F7711968C93119712968C911297C3
:1003B000806812968C9328C011968C911197806852
:1003C00011968C93119712968C9112978F771296A3
:1003D0008C931AC08981813051F018F0823071F00D
:1003E00013C011961C92119712961C920DC0119673
:1003F0001C9211978FEF12968C9306C08FEF119677
:100400008C93119712961C92DF91CF91089588B327
:10041000886088BB83ED90E30197F1F700C000008E
:1004200088B3877F88BB08958AB31ABA88B384607B
:1004300088BB88B38D7F88BB0E9407028AB38FEF89
:100440008ABB88B38B7F88BB0895CF93C82F0E9447
:100450001402CBBB88B3897F88BB89EF90E00197FA
:10046000F1F700C000000E940702CF91089581E0DB
:100470000E9425020895CF93DF93C82FD62F813095
:1004800031F4603120F480E8860F0E942502C230EA
:1004900031F4D03220F480EC8D0F0E942502DF91E0
:1004A000CF91089587E893E10197F1F700C000002C
:1004B00088B3837F88BB85EA9EE00197F1F700C08F
:1004C00000000E94370288E30E94250286E00E9415
:1004D000250280E80E9425028FE00E9425020895EF
:1004E000CF93C82F0E941402CBBB88B38B7F88BBED
:1004F00088B3826088BB89EF90E00197F1F700C074
:1005000000000E940702CF9108950F931F93CF938D
:10051000DF938C01C0E0D0E018C021960F5F1F4F21
:100520000E947002C031D10529F460E082E00E948F
:100530003B020BC0C032D10541F40E94370260E09B
:1005400081E00E943B02C0E0D0E0F801808181118F
:10055000E4CFDF91CF911F910F910895E091720048
:10056000F091730084E08083E0917200F091730059
:10057000C2E0C183E0917200F091730085E0808356
:10058000E0917200F0917300C183E0917200F091EC
:10059000730086E08083E0917200F0917300C18364
:1005A000E0917200F091730087E08083E091720027
:1005B000F0917300C183609172007091730089E3C0
:1005C00090E00E945200E0917000F091710081E093
:1005D0008083E0917000F0917100C183E091700020
:1005E000F0917100C083E0917000F0917100C183BF
:1005F000E0917000F091710083E08083E0917000E1
:10060000F0917100C183609170007091710086E378
:1006100090E00E9452000E94520280E690E00E9408
:100620008502FFCFEE0FFF1F0590F491E02D099496
:04063000F894FFCF6C
:100634004C6561726E20696E2044657074680000B8
:00000001FF
