S01C0000554152545F41546D65676133325F4472697665722E737265630E
S11300000C942A000C943C000C943C000C943C008E
S11300100C943C000C943C000C943C000C943C006C
S11300200C943C000C943C000C943C000C943C005C
S11300300C943C000C943C000C943C000C943C004C
S11300400C943C000C943C000C943C000C943C003C
S11300500C943C0011241FBECFE5D8E0DEBFCDBF19
S113006020E0A0E6B0E001C01D92A136B207E1F79E
S11300700E94BC000C94E8000C94000088B38860D3
S113008088BB83ED90E30197F1F700C0000088B3CB
S1130090877F88BB08958AB31ABA88B3846088BB03
S11300A088B38D7F88BB0E943E008AB38FEF8ABBE2
S11300B088B38B7F88BB0895CF93C82F0E944B00D1
S11300C0CBBB88B3897F88BB89EF90E00197F1F7B8
S11300D000C000000E943E00CF91089581E00E947C
S11300E05C000895CF93DF93C82FD62F813031F46D
S11300F0603120F480E8860F0E945C00C23031F445
S1130100D03220F480EC8D0F0E945C00DF91CF91FF
S1130110089587E893E10197F1F700C0000088B3E0
S1130120837F88BB85EA9EE00197F1F700C0000059
S11301300E946E0088E30E945C0086E00E945C00DE
S113014080E80E945C008FE00E945C000895CF93D9
S1130150C82F0E944B00CBBB88B38B7F88BB88B36E
S1130160826088BB89EF90E00197F1F700C000003E
S11301700E943E00CF9108950E9489000E94D400FD
S11301808DE40E94E00089E70E94E0008DE40E9473
S1130190E00060E080E00E9472000E94E40080932E
S11301A060000E94A700F5CF83E389B98BB18D7FEE
S11301B08BB98AB188608AB98AB180618AB9089595
S11301C05D9BFECF8CB908955F9BFECF8CB10895E3
S10701D0F894FFCFCD
S9030000FC
