S0120000535049204D61737465722E737265639A
S11300000C942A000C9434000C9434000C943400A6
S11300100C9434000C9434000C9434000C9434008C
S11300200C9434000C9434000C9434000C9434007C
S11300300C9434000C9434000C9434000C9434006C
S11300400C9434000C9434000C9434000C9434005C
S11300500C94340011241FBECFE5D8E0DEBFCDBF21
S11300600E9440000C9454000C94000080EB87BB69
S113007081E58DB908958FB9779BFECF8FB108952F
S11300800E9436008FEF8ABBC0E02FE38DE093E03F
S1130090215080409040E1F700C000008C2F0E9466
S10F00A03B008BBBCF5FF1CFF894FFCF87
S9030000FC
